:10000000F01F0000150000100000000000000000BC
:1000100000207047F8B518482921490608620120D8
:10002000086000204861012088600F2008610020DE
:1000300008613F20C861FE20C8600420486000BFFE
:1000400000BF00BF00BFFFF7E3FF00900B4845680B
:1000500000260746002404E0A0003858A100705094
:10006000641C202CF8D300204560A84700BF00BFC7
:1000700000BF00BFF8BD0000A07F0000000400101A
:100080000000000000000000000000000000000070
:100090000000000000000000000000000000000060
:1000A0000000000000000000000000000000000050
:1000B0000000000000000000000000000000000040
:1002C000000300000000000000000000000000002B
:1002D0000003000000B900000003000000B90000A6
:1002E00000C0000000040000010001000100460001
:1002F000190F4341525245524200000001000000D4
:1003000000000000000000000000000000000000ED
:1003100000000000000000000000000000000000DD
:1003200000000000000000000000000000000000CD
:1003300000000000000000000000000000000000BD
:1003400000000000000000000000000000000000AD
:10035000000000000000000000000000000000009D
:10036000000000000000000000000000000000008D
:10037000000000000000000000000000000000007D
:10038000000000000000000000000000000000006D
:10039000000000000000000000000000000000005D
:1003A000000000000000000000000000000000004D
:1003B000000000000000000000000000000000003D
:1003C000000000000000000000000000000000002D
:1003D000000000000000000000000000000000001D
:1003E000000000000000000000000000000000000D
:1003F00000000000000000000000000000000000FD
:10040000F01F00007F060010000000000000000048
:1004100000000000000000000000000000000000DC
:1004200000000000000000000000000000000000CC
:100430000000000000000000F1050010438E0010D5
:100440008F1200107D0600107D0600107D06001042
:100450007D0600106D070010FD210010BD18001072
:100460007D0600107D0600107D0600107D06001040
:100470007D060010E50600107D0600107D060010C8
:100480007D0600107D0600107D0600107D06001020
:100490007D0600107D0600107D0600107D06001010
:1004A0007D0600107D0600107D0600107D06001000
:1004B0007D0600107D0600107D0600107D060010F0
:1004C00003B40148019001BDE11F000003B40148DD
:1004D000019001BDC100000000F002F800F040F8FA
:1004E0000CA030C8083824182D18A246671EAB4649
:1004F00054465D46AC4201D100F032F87E460F3ED4
:100500000FCCB6460126334200D0FB1AA246AB46BA
:10051000334318478CB40000FCB40000103A02D3F7
:1005200078C878C1FAD8520701D330C830C101D594
:1005300004680C607047000000230024002500269A
:10054000103A01D378C1FBD8520700D330C100D58F
:100550000B6070471FB5C046C0461FBD10B510BD2B
:1005600009F0DAFD1146FFF7F5FF00F09EF809F0FB
:10057000F2FD03B4FFF7F2FF03BC01F03EFE000002
:10058000FCB40022002300240025002600270629B1
:1005900002D4FCC00639FAE7002902D004C00139B0
:1005A000FAE7FCBC7047000002B472B60178013172
:1005B000017062B60139080002BC704702B472B61D
:1005C00001780139017062B6080002BC7047000072
:1005D00062B6704772B670471C3880F3098870475E
:1005E000014802490160704704ED00E0000000107E
:1005F000114B1968114A1268914216D0EFF3098025
:1006000020380860F0C044464D4656465F46F0C06C
:100610001A6010681030F0C8A046A946B246BB4622
:100620002038F0C8103080F30988054B002018707E
:100630000420404200470000BC050000B80500004F
:10064000A105000070B505460C46164602E00FCC29
:100650000FC5103E102EFAD2082E02D303CC03C5CC
:10066000083E042E07D301CC01C5361F03E02178D4
:100670002970641C6D1C761EF9D270BDFEE710B5A2
:10068000FFF72AFF10BD10B508F02FF90F4B104AE5
:100690000021104808F08BFC0F4B104A0021104835
:1006A00008F085FC08F044F910BD10B500F0BCF965
:1006B000FFF706FF01F002FA00F056FC00F014FE0E
:1006C00000F058FCFFF7DFFF012010BD58070000C5
:1006D0000964000007670010080C00000A2C0100E4
:1006E000751C001010B508F0CBF8FA48407808F0F7
:1006F00016FBF9490F20C86208F0C7F810BDF8B51D
:100700000246A032937DF54C5D009E005C2300956F
:100710005F5C3B0009F082FD08070A050A07050A2D
:10072000070A0C6B05E0D27A022A15D0002001F0EE
:1007300097F8EB498020C8623004EA4A801C506177
:100740002804801C55210906486120042043886143
:10075000906101200860F8BD4C6A9021415E481C00
:10076000E7D035460029E4D1009DE2E770B5DE4CC4
:10077000C820055908F084F801205521090688622F
:100780002046A0300188891E0B0009F047FD0705AF
:1007900005232305050523002146803110228A5EAA
:1007A000002A10DD521E0A820088062803D100218B
:1007B000022000F016FA204601F0FAFB29462046F6
:1007C000FFF79DFF09E00321C172C248007808F0DD
:1007D000A6FA02E0002001F043F808F056F870BDD8
:1007E00070B505460446203501F083FCC0346079BD
:1007F000A881012070BDF8B506460F460125344694
:10080000284600227F21A0343B0009F007FD0705A0
:10081000070B0F09150F1700E2740AE02022FBE70F
:100820004022F9E74D20E074A2740AE04421E1740B
:100830004C212175A07404E00225EDE7002001F0B1
:100840000FF82946304600F0DFFFF8BDF8B507463F
:100850000020085E0C46C00F01F002F820883D46DB
:100860004042E080A07AA03528803E4660888036ED
:100870003082E08878642089F083E07A2872207BD7
:10088000A8722020005D2873207D6873607D287722
:10089000A17DC520C1552079B074E07EE873207E2B
:1008A000B08300F019FE407E687200F015FEC07D36
:1008B000307601214020C153A07EFE21401C08401B
:1008C000A875607E68752069B063002068778648E7
:1008D00000F05AF92888801E030009F09FFC0727C2
:1008E000053434052205340000F0F6FD203080790F
:1008F00000280BD02888082808D0768B607E3146E7
:100900008019401E08F094FE70436875E17D7648BA
:10091000FFF771FF744801F097FA384601F0E9FBE0
:1009200014E000217048FFF766FF08E002216E48DE
:10093000FFF761FFE088800868770020307638464E
:10094000FFF74EFF02E0002000F08AFF0120F8BD13
:1009500010B50146654808F061FE410A5E4A012073
:10096000403A50605C48002303620F23C362016178
:10097000FF2141618161032151600421016210BDA9
:1009800070B50246584C0846A034130009F046FCE6
:100990000C47332247474143074747130B47524809
:1009A00000F0AAF83EE00D46A17FA9423AD0FFF739
:1009B000CFFFA57736E0CAB229214906486BFF234D
:1009C0001B0218404A4B00241C5F002C00DA104325
:1009D000486327E04448FFF739FF00F07DFD414BB5
:1009E00040300021803B8A008458D2181462491C90
:1009F0000829F8D316E03C4EC82081510220E0724D
:100A00000D46304601F0D4FA29463046FFF777FE0E
:100A100008E0012000E0002000F04AF802E0002099
:100A200000F01EFF012070BDF8B50021084607F058
:100A3000A3FF284C00212070084607F09DFF60703E
:100A4000294C012540200553204604218030818314
:100A500021460222A0314A808A8040390D820580D9
:100A60000F268E8386812746204601F0CCFC204647
:100A700000F08AF801F005FD01F092FA012120460C
:100A800000F0C2FECC2221463846FFF7DBFDA91E4E
:100A90005520000681621049CE62114A1549403A3C
:100AA00011620F498022CA6200220A630562F8BD02
:100AB00010B50C46002803D0084601F004FC10BD18
:100AC00000F00AFD2030407A0028F8D0204601F0DE
:100AD000E0FB10BDA004000080000052CDCDCDCDC4
:100AE000C0030055000100550C0C0000005A6202C2
:100AF000760500003343000070B5054600F0ECFCBD
:100B0000807F01F009FC00F0E7FC2030C079294625
:100B100001F05FFC00F0E0FC808CFFF719FF284635
:100B200000F032F8002400F0D7FC2030007A0028D2
:100B300006D0102400F0D0FC2030007A01F08AFBAF
:100B40000848102181630463074A1278002A01D003
:100B5000016300E0046300F0BFFC808CA035A8773F
:100B600070BD0000C00300557505000010B50128D8
:100B700006D04E490846143001F076FB012010BD26
:100B8000002000F06DFEF9E710B5FF215322120698
:100B90000446516004201062516200239362D362C4
:100BA0001163434A51604348106253629162404A64
:100BB000403251601062536291623D4A803251600E
:100BC0001062536291623A4AC032516010625362BD
:100BD00091620020FFF7CAFF0620A034A071E071E7
:100BE00010BDF8B504460D46009100F075FC324882
:100BF000EE0007787000761C7100761C7200761C7F
:100C000073009C46761C73009E46761C7300761C0F
:100C10007500761C7600002F2BD0032C01D0022CFF
:100C200026D15524009F2406002F37D0234F276359
:100C3000234F6763214F4037A7631C4C3434275A36
:100C40001B484760615A01621948A15A403041600F
:100C50006146615A01627046215A154880304160F0
:100C6000E15A01621248615BC0304160A15B0162E0
:100C7000F8BD032CFCD1144F124C3C613C620B4C70
:100C80003434275A0A484760615A01620849A05A19
:100C9000403148606046205A0862DCE70B4F27630A
:100CA0000B4F6763094F3037C6E70000A0A500105F
:100CB0000000405355550000750500008CCCCCCC8D
:100CC000CCCC8CCC0000F0FF40000052699999997F
:100CD0009999699910B52421663008F09BFC012090
:100CE00010BDF8B50446074605462037A034787F86
:100CF0006076387FA076012020730020206128686C
:100D00002080686DE07600F0E7FB407D207500F004
:100D1000E3FB408A208100F0DFFB007D607500F07E
:100D2000DBFBC07F207100F0D7FB20308079E075BD
:100D300000F0D2FB807D2946207640312E46087F88
:100D40000022D243C0366035022824D0042839D08E
:100D5000052820D0072835D000F0BEFB007E404299
:100D6000608000F0B9FB4078A07200F0B5FB807E97
:100D700020730620E07200203070E061287900289E
:100D800006D0012804D0022802D0002000F068FD1F
:100D90000120E072F8BD0220A07262802878A07560
:100DA00068782081A8786075002020750622E2729C
:100DB000307020610120E061087F0528E8D107201C
:100DC000A072E5E709206076387FA07601202076C2
:100DD00062800821A17220730620E072002030702A
:100DE0000321E061E1750A22228161752075CFE758
:100DF0000120704770B505460446603001704270AE
:100E00008370FF2001217D30015502215C200155B6
:100E1000A0352046FFF765FF29460220FFF7B0FD09
:100E200021460120FFF7ACFD70BD70B505460446B4
:100E30006030017042708370FF2001217D300155C8
:100E400005215C200155A0352046FFF74AFF2946C1
:100E50000220FFF795FD21460120FFF791FD70BDAF
:100E600070B504460546FF300022613002775C20F1
:100E70000155206CA0351E46002806D12046FFF7FC
:100E800030FF29460220FFF77BFD21460120FFF7B6
:100E900077FD0446002E02D0002000F0E1FC204641
:100EA00070BDF8B50546A03504460E461746002B22
:100EB0000BD00621104607F047FE002802D0002084
:100EC00000F0CEFC384607F0FBFEFF2000217D300D
:100ED00001555C2006552046FFF703FF29460220F6
:100EE000FFF74EFD21460120FFF74AFDF8BD70B522
:100EF0005C1C65086D001524A406049EA161E061D8
:100F00000120A060521E11045A1E1143E1606904C1
:100F1000891C21615904891C6161A0622060002E36
:100F200002D060680028FCDB70BDF0B5059D069F0F
:100F30006C1C660876001524A406A161E0610120FE
:100F4000A060521E11046D1E2943E1607104891CCA
:100F500021615904891C6161A0622060002F02D0C8
:100F600060680028FCDBF0BD01211520800681624D
:100F7000016270470849074808620948074901604B
:100F80000849416008494017086007490748803907
:100F9000086070470000C04000ED00E001404040A4
:100FA00000E400E04040004080E100E0E12000007B
:100FB000F8B5417802780B02FF49134349688478F9
:100FC0008C4680310B82FD4F4C82D91BFC4A012597
:100FD0000026BB4272D00ADCFA49591A10D0FA4FE7
:100FE000102912D0112946D012290DD147E001292C
:100FF0006FD002296ED005296DD00629F5D1F1E018
:10100000604640308577C577F5E010213970042CB3
:1010100006D0032C0ED0022C16D0012C1ED0EAE0F4
:101020000279C178120289188AB2411D104606F071
:101030004DF81CE00279C178120289188AB2411D6C
:10104000104606F0CBF812E00279C1781202891836
:101050008AB2411D104606F08CF808E00279C1788A
:10106000120289188AB2411D104606F04DF8002878
:1010700000DB3D73BFE0D548012C73D0B8E0D44B02
:10108000D449002C09D0102C0BD0CF49D24AC978B2
:10109000112C21D0122C37D0ADE01E7016730E70BB
:1010A0004DE01D70C078002805D0012807D0022827
:1010B00008D0032809D016730E709CE03CE015732D
:1010C0000D7098E01573022001E01573032008707D
:1010D00091E03AE03FE068E01D700029017909D015
:1010E000C37809011943518081794079090101438D
:1010F000118080E0C378090119431180817940791A
:1011000009010143518076E01D700029017909D061
:10111000C37809011943D1808179407909010143DC
:10112000918068E0C3780901194391808179407901
:1011300009010143D1805EE0012C04D01673002028
:1011400005F0C8F857E0157355E03121A34808F0C1
:1011500061FAA34847E0A34F012C04D0102C4AD0D9
:101160003E7048E046E000F0BBF90446FF303D70B9
:101170006421133008F04EFA2046FF300C217730FE
:1011800008F048FAE01DF93006744674FF208330F9
:101190000653002081000919FF318131401C8E80E7
:1011A000C0B2CE800628F5D325E08F498F48002CA9
:1011B00002D0012C0BD01EE00E7096218180C82237
:1011C000C2805022028141810576457613E00D7080
:1011D0006E218180C18032210181418119210176F6
:1011E000417608E08248002C02D0012C02D002E0B7
:1011F000067000E005700120F8BD0121C903411A05
:101200008903090E8B007B498205C958920D00297C
:1012100007D081231B02C01A322804D86F4908184E
:101220007047002070478818704710B5C2B2714BE4
:10123000000A4400203B1B5B934202D80020088038
:1012400010BD6C4C8000603C205880189A1A0A80AF
:1012500010BDF0B505220124042512078426664B33
:10126000012807D00027022808D0042808D0082821
:1012700008D109E050484160156001E0002903D021
:1012800016601C700120F0BD15601F70FAE7F8B5FC
:101290005A4E746AF462E00501D5302022E0A006BF
:1012A000800F20D0554D403D6868C007FCD04648AF
:1012B0000078122803D100210220FFF7CAFF3E4F19
:1012C0002046397800F019F80220286001202860B3
:1012D0000C2028624A48A8624A48286200203870D8
:1012E000FF2001303062F8BD70B5334C00256C2012
:1012F000656000F045F8257070BDF8B5404E707817
:10130000317805023D480D434038406A8221800013
:10131000800C0C1A022C0CD030DD2A48281A202808
:1013200016D200F041FA3046FFF742FEFFF7DAF935
:1013300024E025480078122808D001210220FFF778
:1013400088FF2146284600F065F817E00021F5E700
:1013500001200003854211D2A8B26946FFF765FF5C
:1013600000280BD069460988A41EA14201DD694608
:101370000C8069460A88B11C08F0EFF80120F8BD1E
:1013800030B5842105221207116001231361002565
:1013900015621A49022440390C600B600C610B6124
:1013A0007F231B021843D0610C2008621448886216
:1013B00014480862E11E27E0A4040000130800009E
:1013C0007C03000000080000FC0200005D05000036
:1013D0005F05000060050000640500005A0D000074
:1013E0005E050000610500002A05000038030000CA
:1013F0002B05000034A8001018050000C0000050A4
:10140000D80C0000090082002D48C162C562E101CC
:10141000016230BDF8B50446092000258001201A7C
:101420002B468C280AD22748844201D126480370D3
:1014300000F056F80019FF3831382CE00126360349
:10144000B44204D2A0B26946FFF7EFFE23E0A12028
:10145000A11BC000814216D21C48B4424268506BA6
:1014600001D00D4617E0002A29D019490978102922
:1014700011D000290FD024224280472243600270FD
:101480000822427007E00120C003201AB04216D2A1
:10149000A0B2FFF7B2FE002811D04119084804227B
:1014A0000260074B0222403B1A6101221A610523A8
:1014B0001B079A60816007490160491E0160F8BD01
:1014C000C0000050B202000063050000A404000048
:1014D000FC0200000900FFFFB8487047B848704799
:1014E000B6487047B749002008607047F8B5B34860
:1014F000B24A6030917803460025403B55297DD0A3
:10150000B14904240D705521917003215170FF21C0
:101510001573D53111824021518214755575022100
:101520009175D5750126167655769676D676232151
:1015300011775177014640310C706024548478242F
:101540009484044680343227E7759E710327DF7147
:101550005D7296771D724032157055709B4A02601D
:101560004260C56005619A4A45618260994A82611C
:10157000994AC261994A02628830994A0260994A3E
:10158000426002204870642088700A23CB703C209F
:10159000142708710720087408462030EA1E0270DC
:1015A0004D71642088711E20C871782060800220EF
:1015B000207620703220607002202071102060712F
:1015C0000220A0710320E071278223750520A074FA
:1015D000C01FA075401060757B481121008908F07C
:1015E0001DF8E074322060760520A0762820E07691
:1015F000032020776577A677E57700E017E020469F
:101600002030C82101704570082181700E21C17001
:10161000502101714771877164210181F02141815D
:10162000E1218900818120218173C77303E0907FCC
:10163000042800D11D726C4A1F20107012206B49C3
:101640005070088D9082488DD082888D10836848B4
:101650000078012816D0C88D50836448624B203032
:10166000047C20339C70407CD870088F90840020CC
:101670000B18203314189B7C401C23770628F7D3C3
:10168000002006E0AA20E7E7410089180D714D719E
:10169000401C91788142F7D8F8BD56480F2101804F
:1016A000418064218180C1804621018141813221B4
:1016B0008181C18170474F481E2101804180C8212E
:1016C0008180C180AA210181418164218181C18100
:1016D00070473A4800210166416609210903816685
:1016E0003C4981674348142202804280FA2181806C
:1016F000FF211931C1806421018141818181C18132
:101700000521017541753C498A8052424A803B4916
:1017100078228A8004228A71FF22C3324283828324
:1017200055208882FF21364891310180418035481B
:101730001E21C1802821018170472048234901666C
:10174000416623498166234981672A48192101801E
:10175000418096228280C821C1805023038142812A
:101760008381C2810322027504224275224A0F231B
:1017700093805B425380214A6423938008239371B2
:10178000372393821E4A118051801E490E22CA803F
:101790001E220A8178214183FF21C33181830848B9
:1017A00072380221417070470020074A0146131821
:1017B000401CC0B219730C28F9D3704740010000D7
:1017C0005202000018030000FC020000444444449C
:1017D000449444442273000072011000CDCDCDCD5D
:1017E00005070A1425426B9674040000C00200101D
:1017F0002005000038030000F00200008C03000008
:10180000200400001C030000FEB5044601291BD083
:10181000002000F025F82546A0356946687C0F7A3F
:10182000009AB8420ED00C4E0021C8001358336005
:10183000801840687060491C8029F6D38034019874
:1018400060836F740720FEBD012168460172034961
:10185000072000910190DEE70002005544A8001027
:10186000F8B50025002820D1104E00273078104C04
:10187000012810D0FFF761FF01252771FFF72CFE2B
:10188000222181700A482946603804F0C9FE307868
:10189000012803D007E0FFF71CFFF3E7054901200B
:1018A0000873054807708520E070F8BD2805000022
:1018B000D41B00007C0300002705000070B55720F2
:1018C000000644690021C9438161A1070FD406F0D5
:1018D000D7FFA84DE00702D0287807F020FA2007AC
:1018E00002D5687807F01BFA06F0CFFF70BDFF2124
:1018F0000231016070BDF8B59F4C012810D002285C
:101900000ED00D462035032816D0052807D1A06932
:101910000C216956000C000489B20843A061F8BD8F
:10192000FFF7DAFD203080790028F8D1E068000C5C
:1019300000044F30E060F8BDFFF7CEFD2030807925
:10194000002804D1A06D000C00044F30A065FFF703
:10195000C3FDA0304079002805D188488169090C71
:1019600009042B318161687A012805D18348C03090
:101970000169090C0904016120680C216956000CF9
:10198000000489B20843206060690D216956000C8B
:10199000000489B208436061784CC03C61680A2049
:1019A000774E2856370C0206120D3140384011434D
:1019B00000020143616021680B2028563140020675
:1019C000120D38401143000201432160FFF784FDEE
:1019D000FFF782FDE030007DA16B0001314008433C
:1019E000A063FFF779FDE030007D644D40420006C2
:1019F000040D803DA86930400443FFF76DFDE030E1
:101A0000007D4042384000020443AC61FFF764FDB2
:101A1000FFF762FDA0305B4C8079E1680001314046
:101A20000843E060FFF758FDFFF756FDA030C0798E
:101A3000216B0001314008432063FFF74DFDE0308A
:101A4000017D50484038C161F8BD70B54E4D0C461F
:101A500001280AD002281CD0032804D0042810D062
:101A60000020FFF7FDFE012070BDFFF735FDE830D7
:101A70000168A9604068E8602078214600F02EF8EF
:101A8000F1E7404840380169090C0904491C01612B
:101A9000E9E757213D480906086000204200511936
:101AA0000B69121953800969801C090C91800A285E
:101AB000F4D335488038C068E082D4E710B50021FF
:101AC000084606F059FF2B49087057203049000698
:101AD000C1600B2101612F49816110BDF3B504463E
:101AE00087002D480F26B602C55981B0072C01D2B8
:101AF000012000E00020FFF7B3FE012080028542B4
:101B000001D8012000E00020FFF7AAFE0298203053
:101B10008646007AA0421AD016480021001DC759F7
:101B2000AA081548944604E08A00BB5812181360AE
:101B3000491C8C45F8D20022FF270137B94204D84E
:101B40008B001B181A60491CF8E770460472029853
:101B500002990078FFF7CFFE0120C007314601430C
:101B600057200006816071194160FF210231016038
:101B7000FEBD0000AC040000003C0040803E004080
:101B80000FF000FF803F0040C0000057000101003F
:101B900030000080FFFF00000CB2001070B504465A
:101BA00005460E46C43401210320FFF74EFF2846A8
:101BB0002030017F491E2176407F60762A48E0610F
:101BC0002A4820622A4860622146284600F01DF813
:101BD00032460121204600F010F800214035A97757
:101BE00070BD10B5C4300322022100F006F80400D5
:101BF00001D1FFF735FE204610BD10B50B4602702F
:101C000001461846FFF721FF10BD10B50C46036CC6
:101C100001222034022B01D3627201E000216172A3
:101C200005212173022161734030807F012802D099
:101C3000022803D101E0227300E06273FFF74CFC3D
:101C4000A03040781E2801D91E2003E0FFF744FC95
:101C5000A0304078202140B2E072081A022800DA51
:101C60000220A07210BD0000802F00407C2900409F
:101C70000C1800401B490120FFF7EBFA02F092FD1F
:101C800003F000FC02F0CAFDFFF72CFC164803F03D
:101C900090FE01F02EFD05F0FDFB144806F03BFA26
:101CA000134E144C144D3146207806F04DFF002899
:101CB00002D00020FFF7D4FD207807F001F8094892
:101CC00000F0F2FE0746FFF707FC007B0028EAD190
:101CD00028780028E7D1002FE5D000210220FFF767
:101CE000B8FAE0E7741B00003803000000BF0010E2
:101CF0008096980072050000FC02000010B50446B2
:101D0000090260344D4B1143E270CA1A994215D052
:101D100008DC4B4A891813D0502914D0494A891835
:101D200009D110E0FF3AFF3A033A11D0FF2A05D05B
:101D3000FF3AFD3A07D00020FFF792FD012010BDC9
:101D400001F028FBFAE701F0D7F88120E070F5E711
:101D5000FFF7C2FB818C0B20FEF712FEEEE7F8B511
:101D6000064604466030FF36C07800251536302818
:101D700004D00020FFF774FD2846F8BD0027403648
:101D80002764204601F03FFB0546012808D00420C7
:101D9000305E001D01F024FA206C401C2064F0E746
:101DA0002764FFF799FBFF3001304770E4E770B517
:101DB000054604466035E87881280AD083280ED08D
:101DC00084282FD0852807D00020FFF749FD012067
:101DD00070BD832281212DE0802285212AE02046CA
:101DE00001F032F9FFF778FBE0300178A06C814216
:101DF00002D2842283211DE000280FD0FFF76CFB64
:101E0000848C2879002804D1FFF766FBF72141561E
:101E10000C1921460B20FEF7B3FDD8E7FFF75CFB5A
:101E2000818CF7E7204601F00FF9A06C0028CED195
:101E3000832284212046FFF761FFC8E783810000E9
:101E4000D0EFFFFFB0DFFFFF10B50246A032517B9D
:101E5000102911D006DC002903D0012901D0032963
:101E600006D110BD112907D0122905D0132903D09E
:101E70000020FFF7F5FC10BD4900454B20395B5AA7
:101E80001377434A921E515A8030C18310BDF3B577
:101E9000044605468034A035E18BAA7A81B05143CF
:101EA0004E00A76B00F016F83A480761A17CAA7AA9
:101EB000C901521E1143416161691022D141816102
:101EC000287F761E310408430299090208433249EB
:101ED0004863FEBD70B50646A0360024707B2546DB
:101EE00010281ED006DC00280DD001280BD00328B6
:101EF00006D108E0112814D0122812D0132810D0CF
:101F00000020FFF7ADFC707B01218A1E224E0028C5
:101F100011D0012815D003281AD0002C21D001207F
:101F200020E041001A4A2039921E555E80001B496C
:101F300040380C58E7E7B163B263801CFF28FAD938
:101F400070BD0020B163B163801CFF28FAD970BD59
:101F50000020B163B163B263B263001DFF28F8D9FA
:101F600070BD0020FFF77CFC00206A0007E0410004
:101F7000635EB3630B190221595EB163801C824218
:101F8000F5D80021FF28EBD8B163B163801CF9E7D5
:101F900068B200100002005540000055C80400005F
:101FA0003D200249000408637047000040020055CC
:101FB000F8B50546403500210246034604462E8802
:101FC000703250332034864F761E8E468C463E60EB
:101FD000AE89761E7E60866C761EBE60466C856C11
:101FE000751B6D1EFD60A6897D4D761E40356E61A8
:101FF000A668761EAE61A7686668F61B761EEE615F
:102000000788774E7F1EC036376387897F1E7763C8
:1020100087687F1EB76347688668BF1B704E7F1E48
:10202000C036F7631E88761E2E629E89761E6E620B
:102030009E68761EAE625E689B68F31A5B1EEB625A
:1020400013885B1E2B6393895B1E6B6393685B1E17
:10205000AB63536892689A1A521EEA63A4890246D7
:102060002504A032D37C012636041B06AD1B2402B6
:102070002B43FF3C013C2343113355252D06AB6018
:10208000574B147D1C61574BEB6004468034544B16
:10209000267EC03B002E01D0534E01E0524E803EC2
:1020A0001E63137A012B01D901239E461023E35EA0
:1020B000002B01DD072106E0002B13D05E1C15D09C
:1020C0000121DB432382927C090512060A437146F3
:1020D00009040A4345490A432A616146FFF7D7FECE
:1020E0000120F8BD01218C460621ECE701239C4626
:1020F000E9E7FEB50146203106460091A036B27AE6
:102100000192426C054652088264024680320746BC
:10211000044601460292D08B928B40348018A081F5
:10212000F079B279703582188A60A0895037420000
:102130008A81606843084B602088F279C018821A4F
:102140000A802988A068401AA989401E491C07F006
:1021500065FA019907F062FA68604008A860A06813
:10216000019907F05BFA029A6168928B51432288C9
:10217000891840180922B256696851432A8889187B
:10218000401A401E3880A068019907F047FA78602D
:102190002888A9684018B860029AD08B019A5043E9
:1021A0004000B881009960688860218860684218A2
:1021B000A189491C4843243000991018486064687C
:1021C0000019401E214607F029FA717F604340182C
:1021D000009948600099707D88810120FEBD000053
:1021E0000001005543030060F1430001C0030030CB
:1021F000012070470A4603467047FEE7F8B5FFF72F
:102200006BF9054640355520000640689E4EC002D9
:102210009E4FC40E01D1306B38709D480078012864
:1022200003D121460520FEF7DCFC285D39784018F3
:102230003063984910208863F8BD10B5552000061A
:102240004068C002C10E0320FEF7CBFC914910206C
:10225000886310BD022805D0032803D08E480021D2
:10226000886570478D48FAE730B58D4C00229300A1
:10227000CD581B191D60521C052AF8D3884B00212C
:10228000403B8A008458D2181460491C0829F8D3AE
:1022900030BD10B529214906CA680C239A43CA608B
:1022A0000222804B012807D0022805D0032806D03F
:1022B0000020FFF7D5FA10BD5A607B4801E05A6054
:1022C0007A48086210BD70B529214906CA680C23F6
:1022D0001A43CA600324734A4123002808D0032804
:1022E00003D00020FFF7BCFA70BD54600B6270BDD4
:1022F0006F4808626B480025403005601325456033
:10230000856054606B48086268487B3008620B62E5
:1023100069481061106270BDF1B5002782B0664E49
:102320003D460097F6430197FFF7D6F8044602981A
:102330006034791E030007F071FF0504070A1007D7
:102340000D0037460D4608E00D46009605E037467D
:10235000009602E00020FFF783FA4D48007801283C
:1023600001D0564807E056480078012801D00025E2
:1023700002E0544D54480190464880380760009967
:102380000161474A803A1561556101989061552075
:1023900000062168016361684163A16881633D496A
:1023A000E36840390B6023694B6063698B60029B73
:1023B000042B07D1454B136153619361DA430263E8
:1023C00042638263A0690861E0690862206A48622A
:1023D000FEBD70B504460D46062801D2012000E07E
:1023E0000020FFF73DFAC03539492B68E0000A5854
:1023F0001B021B0A1A4329235B069A6340182949CA
:102400004068086070BDF0B5324EB36B00218A00A1
:1024100092191268491C9B1A0E29F8D33568024696
:102420002D4F29212D4C4906A032C030BD4205D187
:10243000F56B2B4FBD4201D1002B0BD00123237034
:102440005C230B6305231B034B63264901600720B4
:10245000D077F0BD002323707368D377B368F46836
:102460001B04240223433469234303607369DBB2F2
:102470000371B069D0730B63D07B000208304863EE
:10248000F0BD00201FE70000C0010055CC04000093
:1024900074050000C0030055FD2100103B22001010
:1024A000C000005540000052E57F00004578000064
:1024B000C07B0000C07A00000000F0FFFF0FFFFFAC
:1024C000750500007777777777077777444444443A
:1024D0006CB2001080C30020100410202005000002
:1024E0001306741920202000F8B5F84C06460F4654
:1024F000207806F0E5FBF64D287806F0E1FB4E204B
:10250000805D002811D00323082202213046FEF707
:1025100071FC0321207806F017FB002802D0002070
:10252000FFF79EF9207806F0CBFBEA4818214378A4
:1025300002783046FEF75EFC6421207806F004FB4A
:10254000002802D00020FFF78BF9207806F0B8FBB6
:1025500004213046FFF722FB6421287806F0F4FAC4
:10256000002802D00020FFF77BF9287806F0A8FBAE
:102570002422D949384606F0F0FF0120F8BDFFB506
:10258000002683B00F463546344618E060000290BE
:10259000385A07F0F9FA07F04FFE009001913046E3
:1025A00007F0F6FA019B009A07F09AFA07F0E4F8B0
:1025B00006460298385AA84200DD0546641C059874
:1025C0008442E3D3284607F01DFC07F0E1FA07F048
:1025D00033FE07F0D1F804462421384607F01AF8F4
:1025E0003046069907F0E4FE0399086020460699F4
:1025F00007F0DEFE03998860059807F00BFC0146A2
:10260000304607F0EDFA069907F0D2FE03994860CC
:1026100007B0F0BDFFB585B000200290AF48009034
:102620001446012748000E46A04201DA012000E0CE
:102630000020FFF715F9751CA01BC01B04903EE09D
:1026400000200746744201901BE030198100089871
:1026500040580390281918214843059908580399B0
:1026600007F0A6FE0146019807F008FE01903846E3
:1026700007F0C8FB039907F001FE07F061FB07466E
:10268000641CB442E1DD384607F0BCFB014601980A
:1026900007F0A6FA1821059A69438C180146E060F4
:1026A000009807F05BFE01D2009800E0E06800901F
:1026B000E16807F029FE00D1029504986D1CA8423C
:1026C000BED8029809B0F0BDF3B583B000207D25D7
:1026D00000900826ED008248049906F09FFF470805
:1026E0007F00744238462946484301907D487E4920
:1026F00060434018019906F09BFF0499091A00D520
:102700004942A94203DA26460D4608360090641C69
:10271000082CEBDB03987942466503980160039926
:102720000098C860380203993043886531460A2012
:10273000FEF726F9012005B0F0BDF0B50446C068EB
:10274000616887B0451AA168002240187D21C90040
:10275000029166490978039165490191032100912D
:1027600064498A5E002A0BDB01200390FEF7B4FE69
:10277000018A60680D1AFEF7AFFE008AA168401852
:10278000642D00D26425FF21F531884200D9084626
:102790004F4E0590307806F093FA00212046FFF75F
:1027A000FDF96421307806F0CFF9002802D000202E
:1027B000FFF756F8307806F083FA00262046663098
:1027C000049021E018200199704347187F20C0052C
:1027D000069029462046FFF777FFE168029881427C
:1027E00010D020460499FFF77FFE11223846069B41
:1027F0000499FFF7C4FEA06D7861E0683861E06875
:10280000761C029003982D1805988542DAD33A4B2E
:10281000324600990198FFF7FDFE182148430199BF
:102820004018056980683549884204DD3449012033
:1028300008706421085529462046FFF745FF3149B5
:10284000019806F0E9FEFEF747FE45842068DFE6C2
:10285000F0B505462C480026007887B0012832D014
:102860007F232946DB05112266316846FFF787FE84
:10287000264C6869214607F09BFD009907F0FEFC95
:10288000F71E394607F0CAFA68612146286907F041
:102890008FFD029907F0F2FC394607F0BFFA286174
:1028A00007F074FA0446FEF717FE04842F466037DB
:1028B00038792C46803400282AD001287FD002287D
:1028C00001D0002038713046A2E60000A0040000CC
:1028D000AC040000680300000034004000401C46C7
:1028E000409C0000400D0300005A620215050000E4
:1028F0007C29004076050000D00400000000C8429A
:102900001D050000040600002B0500000000E0404B
:102910005B48008A07F07EFA696907F01FFD0ED256
:10292000A07A5749401CC0B2A07289898842CAD394
:102930006869A8610120A0730646062013E050488C
:10294000406807F067FA296907F008FDBBD2E07A12
:102950004B49401CC0B2E072C9788842B3D3022010
:10296000A0730126042047490870012046493871A8
:102970000870FEF7B1FDA03064248471FEF7ACFD51
:10298000A030C471FEF7A8FD80214182FEF7A4FDAE
:10299000052101753D49782088803D480078002850
:1029A00091D0FEF799FDFF2101314182FEF794FDA0
:1029B0000621017537490320487584E7FFE7304851
:1029C000806807F027FA296907F04AFD51D22C48A0
:1029D000408A07F01FFA696907F042FD49D2A089D1
:1029E0002749401C80B2A081CA892B49904202D35A
:1029F0000879002805D0042008560028DDDD0020D5
:102A00003BE0002038712049A0730870A081FEF7D8
:102A100063FD40214182FEF75FFD042101751F48DF
:102A20001F4C007B002812D001202070174978200D
:102A3000888017480078002807D0FEF74DFD8021D8
:102A40004182FEF749FD0521017501263BE7FEF7AE
:102A500043FDA03064258571FEF73EFDA0301E21A8
:102A6000C171022020700F4901200870074885803D
:102A7000EBE7A0890028A0D0401EA08123E700003A
:102A800068030000150500001D0500008C03000010
:102A90002705000038030000B81400007C03000084
:102AA0002805000029050000F0B59DB0054600F09E
:102AB0001DFE04F0C5FC924812210388027A1F20F3
:102AC00002F0FAFC02F0B6FE8E488F4C817D0029A0
:102AD0001AD0C07D002817D08C4812231F222179DC
:102AE0000BAE0FC687492C2214396846FDF7AAFDA4
:102AF000844820380EC80FA802F0ACFE8148382266
:102B00000FA92038FDF79EFD01F034FE01F0A8FE6C
:102B10007F4802F0D6F87F4E014630707E4A7C48EE
:102B200002F01BFB307001460122794802F06EFC76
:102B3000307077482C21415E406803F0C6FA774830
:102B4000774900780978084301D103F023FD01F0AB
:102B500017FA744906460868401C086000210420E2
:102B6000FEF773FF704A7148137800277049002BF5
:102B70000ED017700078012805D0002000F033F83F
:102B800006466F642CE00F70284600F06BF8F7E7FC
:102B9000684A1278012A02D00078012809D1087801
:102BA000401CC0B20870642801D2002601E06420F5
:102BB00008702079604A6149002808D00878002808
:102BC00001D008280AD920791070012007E0177079
:102BD0000F704F480D212030C17401E0401C087077
:102BE00030461DB0F0BDF8B50446FEF779FC01464D
:102BF000FF31FF3000230131133010251426504FD0
:102C00000B74002C19D0002212E024244D4F5443A1
:102C1000E419278B0780678B4780E4888480837161
:102C200042720572C6710C7C0A30641C0C74521C12
:102C3000434CA4789442E8D810E000220BE00380D3
:102C400043808380837142720572C6710C7C0A30A6
:102C5000641C0C74521CBC789442F0D8087C497CEB
:102C60004018F8BD70B50446FEF73AFCC11D0022BD
:102C7000F9310A7425461022FF354A744135698BB3
:102C80000123022921D00146FF31022281314A80ED
:102C90001A22AA5E632A28D0652A29D06D2A29D053
:102CA000772A29D04B8000214A008B001219FF326D
:102CB0001B186132FF33813355889D80D289491CAE
:102CC000DA800629F0D3012070BDFF30E11D81308C
:102CD000F93143808A8AFF34828021342288C2807D
:102CE000C98A018161884181EDE7FF22033204E056
:102CF000154A02E0154A00E0154A4A80D3E7000071
:102D0000F0020000A4160000B8140000BC16000079
:102D1000A40D000034050000380500002A0500005D
:102D20002B05000018030000540500006305000097
:102D300062050000610500001A0500001B05000087
:102D4000FC020000D4140000020200000203000094
:102D50000204000010B50120FF23532109064B6037
:102D600004220A624B6200228A62CA620B630A6210
:102D7000FD244C604C620224CC608C618A62CA6281
:102D80000B638C68CB620A63896810BD10B504467A
:102D90000021FEF72DF8FEF79FFBC07E002802D031
:102DA0002046FFF7CAFC00210720FDF7E9FD0120BE
:102DB00010BDF1B584B0EE48049E0078403601287D
:102DC00006D00A27B07BEB4D002817D0022413E071
:102DD0006427F7E7287805F073FF00232A7819465F
:102DE0000498FEF75EF83946287805F0ADFE002815
:102DF00002D00020FEF734FD641EEBD2FEF76CFB20
:102E0000007E694608700190FEF766FB007D69460A
:102E100048700390FEF760FB017E727F914001765F
:102E2000FEF75AFB017D727F012489180175FEF7B8
:102E300053FB007E7843D04F00902EE00126287887
:102E400005F03EFF387805F03BFF002C00D102264C
:102E5000287805F035FF0323082202210498FDF7A6
:102E6000C9FF01232A7800210498FEF71AF8287870
:102E7000009905F069FE002802D00020FEF7F0FC62
:102E800031460498FEF78AFE3878009905F05CFE1A
:102E9000002802D00020FEF7E3FC641ECED2FEF72D
:102EA0001BFB01990176FEF717FB039901750321BE
:102EB0000620FDF765FD012005B0F0BD70B50546A3
:102EC000FDF708FF03210520FDF75AFD2846FFF70F
:102ED0005DFFA94C207805F0F3FE00212846FEF79F
:102EE0005DFE0A21207805F02FFE002802D0002088
:102EF000FEF7B6FC012070BD70B505469C48007811
:102F0000012820D00A242846FDF7E4FE03210520ED
:102F1000FDF736FD2846FFF739FF974E307805F06C
:102F2000CFFE00212846FEF739FE2146307805F015
:102F30000BFE002802D00020FEF792FC2846FFF787
:102F400038FF012070BD6424DDE70120704770B5B3
:102F5000044603210520FDF713FD874D287805F071
:102F6000AFFE00212046FEF719FE0A21287805F061
:102F7000EBFD002802D00020FEF772FC2046FFF790
:102F800018FF012070BDF3B5074683B020300290D2
:102F9000407F019079489024057801260521384624
:102FA000FEF71FFE8A2D18D00ADC112D21D004DC7B
:102FB000002D1ED0102D1DD10CE0122D1AD118E0BD
:102FC00028468B38030007F029F9070A150C0E1064
:102FD00015121500002426460CE0694C0AE0694CE5
:102FE00010E0694C0EE0694C0CE0694C0AE0694C59
:102FF00008E00026852D12D08C2D10D0002D0ED08B
:10300000102D0CD00120009002980121037FA0B266
:1030100089074118B86B019A80B2FDF768FF062155
:10302000386C06F0FBFA01290AD1012E08D1FEF70F
:1030300053FA007B002803D100210220FEF709F992
:10304000049805F045FE37E7F8B5044605464848BC
:1030500040350078012840D00A273E46032105204C
:10306000FDF78EFCA87B434D002811D0287805F091
:1030700027FE0323082202212046FDF7BBFE394626
:10308000287805F061FD002802D00020FEF7E8FB5B
:10309000287805F015FE4048022143780278204642
:1030A000FDF7A8FE01232A7800212046FDF7F9FE4E
:1030B0003946287805F048FD002802D00020FEF7A8
:1030C000CFFB03210620FDF75BFCFEF705FA206C21
:1030D000294F2A4D002806D102E064273E46BDE76D
:1030E0002878082808D13146387805F02DFD2B487E
:1030F00001782046FFF747FF387805F0E1FD2848C2
:10310000007805F0DDFD03212046FEF747FD244849
:103110003146007805F018FD002802D00020FEF7A7
:103120009FFB387805F0CCFD29782046012220301D
:103130001C4D852902D08C2907D00EE00092037F18
:10314000427FA06B184980B205E00092037FA06B1C
:10315000012280B22946FDF7CAFE204624222946D4
:10316000663006F0FAF9206C401C20640120F8BD9E
:1031700074050000A0040000AC040000FC02000084
:103180000C1800007C290000681C0000603600005C
:1031900020350000C4200000680300007205000014
:1031A000AD040000003400409000004010B501461E
:1031B0000120FFF71DF810BD10B50146042000F0F6
:1031C00017F810BD10B50146012000F011F80020DD
:1031D00010BD10B50146032000F00AF8002010BD14
:1031E00010B50146012000F003F8002010BD0000DA
:1031F000F3B583B00546FEF773F929243A4F00264C
:103200006406012D0BD0022D09D0032D07D0042D0B
:1032100061D00020FEF724FB012005B0F0BD33484B
:10322000049940690090324806F0F8F9F16B019179
:10323000316C02912F4921622E49503121622E4971
:103240000E620F22CA6228490E60A6602B49F16304
:103250002B493164274952312162002100BF00BF50
:1032600000BF491C3229F9D3264921620127676230
:103270001E4B5861986107221A61032D17D00099DF
:103280000498FDF723F9276266620198F0630298BB
:10329000306415481C490160174804210162022D61
:1032A000BAD101F094FA19488777C777B4E704993F
:1032B0000098491C0BD01349216230BF266251216E
:1032C00009060E60586198611A61A760DBE70D4935
:1032D00009312162F2E77D2000013E60A0610320F8
:1032E00060610120606197E700E100E000E000E03C
:1032F00050C30000A47B00008000005201010000C8
:1033000005010000F67F0000E1200000B41B000072
:10331000F1B584B0FEF7E0F804466034FEF7DCF85F
:103320002030057AFEF7D8F82030C6792068009062
:103330006768A0680190A0690290FEF7CDF8FF30A1
:10334000013041890498FFF7BFF9FEF7C5F8203036
:1033500000210172FEF7C0F820300021C1715549EB
:1033600021606160A1605448A06100210720FDF741
:1033700007FB0298A06101986760A0600098206038
:10338000FEF7AAF82030C671FEF7A6F820300572C5
:1033900005B0F0BD70B50446FF3405461534FDF7A1
:1033A00099FC6821204606F037F944486063434899
:1033B0002430A0634148243820644148E063FEF78C
:1033C0008BF8FF3001308179FF2059304153FEF7EF
:1033D00083F8FF3001300021C1712846FFF798FFC4
:1033E000384C207805F06CFC00212846FEF7D6FB0F
:1033F0000321207805F0A8FB002802D00020FEF76A
:103400002FFA012070BDF8B52E4C06460027207813
:1034100005F056FC2C4D287805F052FC03210520C0
:10342000FDF7AEFA00232A7804213046FDF718FD97
:103430000321287805F088FB002802D00020FEF741
:103440000FFA01210620FDF79BFA306C052801D206
:103450003846F8BD05213046FEF7A0FB0321207851
:1034600005F072FB002802D00020FEF7F9F90021D8
:103470000320FEF7EAFA304605F0E2F8050017D01F
:1034800012490120087012490870FEF725F83446E9
:10349000FF34FF3041340130618BC1711A200D4976
:1034A000205E8862FEF718F8018A3046FFF70CF9B3
:1034B0002846F8BD444444442276000000340040CD
:1034C0000C180040AC040000A004000063050000DC
:1034D0005405000074040000F8B504460546803425
:1034E000208A774B1022C11A764F0026984279D055
:1034F00009DC7549401864D0012854D0022874D0E2
:1035000003280DD154E00A290BD00B2902D012292F
:103510007ED17BE0608A05287AD13A700120387329
:1035200076E06A486A490278012A07D006700E7070
:103530004035A889674F00280DD011E00E70067045
:10354000FDF7CAFFFF30013001214170FDF7C4FFD4
:10355000162181705CE0FDF7BFFF2030407A3870A3
:10356000FDF7BAFF203001214172A889401C80B2CA
:10357000A8810A2801D2002011E0FDF7ADFF20301C
:1035800039784172AE810C2005F009FE0020C0435D
:10359000FFF718FEFDF7A0FF16218170012000281B
:1035A00036D10120F8BD7D200001FFF705FE2FE098
:1035B000608A06282CD8082038704749608A08801D
:1035C00026E02846FFF7C6FB3873FF21532000068C
:1035D00041600422026241628662C662016317E0B2
:1035E00000E002E003F00AFE98E710203870284659
:1035F00003F07CFCF860FDF76FFF1621817001215C
:10360000284603F00DF81020387001E0608A6083CE
:103610002682C6E710B50446FFF75EFFFDF75CFFA4
:10362000807855280FD0FDF757FF2C4801780129E5
:1036300005D00021204602F0F3FF012010BD00213B
:1036400001700121F6E7204600F001F8F5E7F8B532
:1036500006460027FDF740FFC07E00282CD03046EC
:10366000FFF7F6F81E49012806D00878012823D173
:103670001C48007900281FD1304600258030C572D3
:1036800085728581164834460078603400280DD054
:1036900015480078012810D0FEF74FF82571012752
:1036A000FDF71AFF222181700D480570394630461A
:1036B00002F0B6FF8520E070F8BDFEF70AF8F3E7E8
:1036C00005080000FC020000FFF7FFFF6105000095
:1036D00063050000EC04000076050000840500008E
:1036E00029050000B81400002805000070470000FC
:1036F0007047FF4923200870FE4916200870704764
:10370000F8B5FD48002602460188403291703746E0
:1037100006803546F84A680084181020205E00288C
:1037200022DDE18E032904D2491CE186E083278251
:103730001BE01E22A25E811A09B2002901DA494269
:1037400009B2642348435A431018643105F070FFEE
:1037500000B2E949E08320820A88521C0A8086422E
:1037600003DA06464D8000E0E7866D1CEDB2052DBC
:10377000D0D3F8BDFFB58E46E049E24A0B79E04967
:1037800081B009784900525A022B3DD015462421B8
:103790004843DD490023461803991820305ECB5E6C
:1037A000C11A00D5191A8C4604991A240027345FCF
:1037B000CF5FE11B00D5391B6446641811198C4694
:1037C0004F107146C90730D050436343C018C01929
:1037D000614605F02DFF03990022088004991A2004
:1037E000305E8A5E684362438018C019291905F06B
:1037F0001FFF0499062208800A980023B25EC35E68
:10380000D01A05D4014604E051008AB28DB2BEE759
:10381000991A6431002800DA981A584364235A43ED
:10382000801805F005FF0A990880002005B0F0BD5A
:10383000F0B50746B14885B040690190B348B44C33
:103840000290208D1F2105F0E9FEB24D46086E80E2
:10385000608D112105F0E2FE4008A880039031211F
:10386000AA4805F0D7FE30204743AB483C18A14892
:103870000627E75F01783846009105F0D9FE2870E9
:1038800000994843381A687001202821615EA34FCF
:103890008200D2190223D35E1A118B1A00D5531A53
:1038A000B34202DA401E287003E0401CC0B21F2859
:1038B000EED901202A22A25E8100795E0B11D11A75
:1038C00000D5991A039B994202DA401E687003E002
:1038D000401CC0B21128EFD96A782978D31E5CB297
:1038E000CB1CD21CC81E40B25BB252B29E4694465C
:1038F000002800DA0020002C00DA00247C4A12782C
:10390000521F964501DD52B29646009A921F944589
:1039100001DD52B29446C2B2091A0320401AC3B262
:1039200020E07C49E0B249780D1B0321491BDD00F2
:10393000ED1AC9B200950FE06E4D2D7855432D1844
:103940006E00019D401CAD5B009EAD107718029E7D
:10395000491CF555C0B2C9B26045EDDD521C5B1C77
:10396000D2B2DBB27245DCDD60E7F7B56C4886B0F9
:103970000078002802D0002009B0F0BD6948644CEE
:10398000C17D0591007E0390208D029080009B21D7
:1039900005F044FE0746608D04908000552105F037
:1039A0003DFE064606980025455F07980024045F03
:1039B0005C4A192010560599009002984008019021
:1039C00000297CDDBD4220DAFF21E81B233148437A
:1039D0008011C01905B2E321284605F029FE000632
:1039E000C10D4C48801D405A0090281A47B206214C
:1039F000384605F01DFE089940B2890634D51937BE
:103A0000192F31D2009908182DE00298401BB842B6
:103A100007DA059AC01B504380110299C019081A91
:103A200021E0E321284605F003FE0006C10D3948D8
:103A3000801D405A0290281A47B20621384605F0E8
:103A4000F7FD089940B2890605D51937322F02D8FB
:103A50000299081805B201990098491B4843019939
:103A600005F0E6FD401905B22E491A27CF5728491F
:103A70000398498D4908009100287DDDB44225DA7C
:103A80000399A01B48438011801904B2A22120464B
:103A900005F0CEFD0006C10D1E481830465A06211D
:103AA000A01B47B2384605F0C3FD089940B289060D
:103AB0007DD51937192F7AD2301877E0FFE7BD424C
:103AC000D2DB0298C01BA842C5DACDE70498001BE0
:103AD000B04240DA0898800601D5E41E24B204986A
:103AE000039A011B891B514389118919401A1BE054
:103AF0004505000046050000CC160000B814000083
:103B00001D05000020040000D41400005A0D000020
:103B1000A40D0000EE04000048110000A2B2001045
:103B20005C0500008C03000004B2A221204605F0D1
:103B30007FFD0006C10DFE48465A0621A01B47B274
:103B4000384605F075FD089940B289062FD57F1ECD
:103B5000182FB1D92BE0A221204605F069FD0006FF
:103B6000C10DF348405A0190201A46B20621304652
:103B700005F05EFD40B200E00DE00899890605D52C
:103B80001936322E02D80199081804B2009800990B
:103B9000001B784307E0B44209DB0498801BA04275
:103BA00005DB081B784305F043FD001904B20698B5
:103BB000058007980480DEE6FFB587B00D46144601
:103BC0001E46119F079806F01DF90090284606F042
:103BD00019F90190204606F015F90290304606F0DA
:103BE00011F90390109806F00DF90490384606F08C
:103BF00009F90590BD4210DD1098001B06F002F98E
:103C00000546B81B06F0FEF8294605F0E9FF074611
:103C1000009906F0CDFB01990FE00798201A06F0F5
:103C2000F1F80746701B06F0EDF8394605F0D8FFAD
:103C30000746049906F0BCFB059906F01FFB0646F3
:103C40003846029906F0B4FB039906F035FC0546A8
:103C50007800000E0FD00121384606F0DFF8044648
:103C60002946304606F034FC214605F0B9FF06F03F
:103C700067F80BB0F0BD2046FBE770B504AC70CC24
:103C80000022002802D01E2807D00CE00020205E71
:103C9000002800DA22801A8005E00020185E002843
:103CA00000DA1A802280002908D0102905D10020CE
:103CB000285E002800DA2A80328070BD0020305E45
:103CC000002800DA32802A8070BDF0B59446994A07
:103CD0000025994F54692B46FE56CA5C361876006B
:103CE000A65F5B1C564375195BB2042BF4DB4200E4
:103CF000A25E0B795A4355190523FE18203E1F2258
:103D0000B25616187600CA5CA65F5B1C564375193E
:103D10005BB2092BF1DB6046054128B2F0BDFFB56F
:103D2000064689B00020079084481F460178304637
:103D30000D4605F073FC04466843301A85B2701EC8
:103D40000A990090701C019000291FD07A4A032123
:103D5000515604238919D35676489A194069009B15
:103D60007600865F1B040496019FDB0B1204C35A86
:103D70006E46B381D20B89B2825A32844900415ACD
:103D80003F043183F90B405AB08234E07A7A3946E5
:103D90003046FFF79AFF049000987A7A80B239464D
:103DA000FFF793FF6946888101987A7A80B2394695
:103DB000FFF78BFF6946888260487A7A0078394637
:103DC000301A80B2FFF781FF694608835B487A7A30
:103DD00000783946301880B2FFF777FF69460884CB
:103DE00005AA03A908A86E4607C606AB69B260B269
:103DF000049AFFF742FF0B98514EC0073ED06A4627
:103E00001821515E2020049B105E994203DD0B4671
:103E1000814200DA0346994211D183420FD1A000BA
:103E200080190621415E1298002C016004D045489B
:103E30000078401F844243D101200DB0F0BDA200A4
:103E400097190A22BA5E0092019006220220BA5EF9
:103E5000385EFFF7B1FE002801DA002003E03A499E
:103E6000884200DB08461299002C086004D03548CF
:103E70000078401F844201D1012007900B988007F1
:103E800040D568460C21415E1422049B825E994213
:103E900003DD0B46914200DA1346994212D1934258
:103EA00010D1A80080190421415E1398002D0160F3
:103EB00004D022480078801FA84201DC0220BCE721
:103EC0000020BAE7AC00A0190827C75F019200974D
:103ED0000422825E305FFFF76FFE002801DA0020C7
:103EE00003E01A49884200DB08461399002D086058
:103EF00004D012480078801FA84203DC0798801C79
:103F000000B20790079898E77CB50D4624214843F6
:103F10000F490B4B41181D200856302148430D49CD
:103F200001924418164600958833E088032213E076
:103F300006050000B81400003D050000460500001D
:103F4000A2B2001045050000117600008441000077
:103F5000D4140000481100000021FFF7E0FE002803
:103F600005DB012803D0022801D0032807D10196E0
:103F70000095E088F94B03220121FFF7D0FE7CBDBC
:103F8000F0B5BDB0002007900120029007200E90F0
:103F9000FDF7A6FA04460990FF34F148133427468A
:103FA0000078643701281ED0EE48007801281AD026
:103FB000ED480078002817D0002018A9087348732E
:103FC0000190EA480690019824214843E84903906B
:103FD0000D5AFF200230054204D0680606D548215C
:103FE000A94303D0F8E100203DB0F0BD18A8007B44
:103FF000E0490A908978884205D340210D43DC4886
:1040000003994552E8E1DC49284608420CD0D848DB
:10401000039930AA0818018B1185418B9185C188BD
:104020001186807F0290EBE0D14903980622461862
:104030001D20305630210B904843D0490F90401836
:10404000009005904089CE49C0B207900598825EE5
:104050000D92097810460C91089105F0E9FAC0B26A
:10406000089904900D9A4843101AC0B20890059818
:10407000C24982780F98085C101AC0B2844605982D
:10408000C14AC17840781278081AC1B2BD48801878
:10409000027D68050FD57069B54B904202D2401C75
:1040A000706199E101208002854320200543039837
:1040B0001D5201200290FF202130054219D1B34842
:1040C0000078012815D0049800280DD0B04A127845
:1040D000921F904208DA0898002805D00E9A0C9892
:1040E000821A089882423EDC604605283BD20529A8
:1040F00039D23BAA3AA90198FFF706FF002825DA32
:1041000000988089400715D5049894498000883923
:1041100042180620105E069A527D104130AA108582
:104120000898800041180420085E0699897D08419E
:10413000908506E0009830A9008D08850098408D94
:104140008885E80516D50220029013E0069830A96C
:10415000427D2820085E104108850698827D2C202B
:10416000085E1041ECE7009830A9008D08850098A2
:10417000408D88852A463BA93AA8FFF7F6FB0098B0
:1041800041698148007842007E48805E091A091121
:104190004000081800B230A90886FF2800DDFF2083
:1041A00008867069012810D0B08930823089B081CA
:1041B000F08970827089F0817088098D081A3081C9
:1041C00030A9B088898D081A708130A8008D708060
:1041D00030A8808DB080A80612D56E4800780128DE
:1041E00003D10B9840B2FFF723FB30A8008D30833A
:1041F00030A8808D708330A8008EF0800298B07750
:104200005B48039930AB0E181821715E2820185EA8
:104210008C46081A1A212C22715E9A5E40438A1A33
:104220005243821800202B0701D5102020E0AB0656
:1042300001D504201CE0029B012B19D1524B51489F
:104240001B78C018203080794043904207DBF07F14
:10425000400704D5604630AA10859185E9E73CA85F
:1042600000903BAB3AAA29460198FFF783FA082051
:1042700030AA2821515E002901DA002111853B492D
:10428000134620392822098D9A5E914201DC491E8D
:1042900019852C21595E1A46002901DA00219185E1
:1042A00032492C222039498D9A5E914201DC491E07
:1042B000998539498A78002A02D1CA79002A6DD0B5
:1042C0001A8D0A990C2359431BABC9184A8030AA8E
:1042D000918D18AA127B0C235A431BABD2189180E4
:1042E00030AA3021515E18AA127B0C235A431BAB13
:1042F000D218D180002900D0079918AA127B0C236C
:104300005A431BABD218118118AA127B0C235A43B3
:1043100002211BAB0143D2189172E90501D502219C
:1043200000E0012118AA127B0C235A431BABD218C0
:10433000D17218AA127B0C235A431BABD2180199D5
:10434000117318AA117B491C1173290736D5002057
:1043500030837083F080B0773DE01FE02AB3001017
:10436000610500006305000018050000C40D000091
:10437000D4140000FC0200000C0A000048110000E8
:1043800046050000380300001D050000140500006C
:10439000450500005E0500007C030000420702D5D1
:1043A0000A7A002A8CD0C20602D58A7A002A87D0DF
:1043B0000207CAD5497A002982D0C6E730A9098DFB
:1043C000318330A9898D718330A9098EF1800299DA
:1043D000B17702210843F0770198401CC0B20190E8
:1043E0000C2800D2EFE5A64D2879002812D0A54967
:1043F00000200A8D1BAE09E00C23014659438919A0
:104400004B88D31A5B1E401C4B80C0B218A9097B95
:104410008142F1D86879002811D09A4900204A8D4C
:104420001BAE08E00C21414389198B88D31A5B1E0F
:10443000401C8B80C0B218A9097B8142F2D8E87871
:1044400000280FD000201BAB08E00C214143C91805
:104450004A888D884D80401C8A80C0B218A9097B8B
:104460008142F2D8099D0026FF35013586482E7419
:104470000078002803D018A80021027BC5E08348FB
:104480000078012802D0022832D053E018A9097B15
:1044900000208C4617E00C2102464A431BA9511804
:1044A0004B888722D20093420BD88988FF22E132C1
:1044B000914206D32D225201914202D8734A022121
:1044C0001170401CC0B28445E5D8704800780228BD
:1044D00030D1012018A908738720800010A9C88551
:1044E0000F208001088618A9887D102108431FE04D
:1044F00018AA127B0021084694460AE00C230246C3
:104500005A431BABD218927AD20600D40121401C28
:10451000C0B28445F2D8012318AA13738720800003
:1045200010AAD0850F2080011086002910D0062007
:1045300018A988756A221FA96846FCF783F81BA88A
:104540000FC803F092FD51480078022809D017E007
:1045500018A9887D1021084318A988754B490B704C
:10456000E8E7FCF7BDFF0146FF31813103220091EE
:104570004A8048484649006803F0EDFD009988806C
:1045800018A9097B00208C4621E00C2102464A43F1
:104590001BA951184A8822808A8862808A7AD306A9
:1045A00001D5A68002E03C4B1B68A3800B89A37158
:1045B000E271CA7A2272354A1278022A0AD0097B3D
:1045C0006172297C0A34491C401C2974C0B284459C
:1045D000DBD81CE06672F4E70C200B4643431BA8B3
:1045E00018184388238083886380C388A380038945
:1045F000A371837AE371C37A2372007B6072287C93
:104600000A34401C491C2874C9B28A42E4D8FFF716
:1046100077F8224B6E740020214942005118102275
:104620008A5E002A0ADD1A5C402422433A70102276
:104630008A5EFF2A00DBFF227A7008E02A228A5E67
:10464000002A08DD1A5C202422433A707E706A7CBE
:10465000521C6A74BF1C401C0A8AC0B24A850528D5
:10466000DAD30F484188818308480078022803D1B3
:10467000687C1021084368741020285EB4E40000B0
:10468000FC020000A40D00005C0500002A050000EB
:1046900000BF001058050000F41C00009CB2001080
:1046A000CC160000FEB53748009016208446122133
:1046B000354801910078364D410034480818408A49
:1046C00000230290304C00985900247808180022EA
:1046D0001146A646660005E04C00045F002C00DD94
:1046E000A2186144A942F7DB02998A4216DB2749E6
:1046F0007418E6887144897B56430E4100210F46A9
:104700000AE04A00845E002C05DDB44202DBA41BF3
:10471000845200E087526144A942F2DB5B1C01989D
:10472000DBB28342CED3FEBD30B51A4A10780028E2
:1047300001D0401E17E01448174C0078174B002892
:1047400016D017480A21415E0F48007840007829AA
:104750000BDDFF2591356943185E8912814200DC2B
:10476000014621800420107030BD185A208030BDD1
:104770001888FBE700B5FFF7D7FFFFF793FF00BDF1
:1047800070470000D82900401D0500001C030000F0
:10479000AA020000210500001E05000038030000E9
:1047A000BC16000000201549154B08704870012206
:1047B0001A70144A1080144A1080144A10708870BD
:1047C000C87008714871887111490870704710B538
:1047D000FFF7E8FF0F48002181738172C172818168
:1047E00000F050FE00F01AF8FCF77CFE0A4801F0D9
:1047F000E0F8FEF77EFF02F04DFE10BD160500004A
:10480000250500008C0D0000480500005C05000037
:104810005D050000F41B000038030000FE48FD4960
:104820000160FE49C160FE490161FE494161FE49E6
:10483000C161FE498161FE49CA88028509894185B5
:104840001F2120304174112181740421417581752B
:10485000F849F94816218180F6495C3101607047BA
:1048600070B5F54AEC4806CA82604160F349F44BE2
:104870000978F74C4A00D21892888285F14A12884A
:10488000C285F1484118E4480A7920300275EF4AA0
:1048900013780122012B0DD0EE4B1B78002B09D190
:1048A000ED4B7D261D683601B54207DD0A255D5FAB
:1048B000782D03DAC2740021217002E08979C17475
:1048C00022703C21017470BDF7B5E8B00021009161
:1048D000E2480491039102910191059100781446F8
:1048E0000890012807D1DE480079002803D12082F2
:1048F000A0826082E082002030214143689A0791C3
:1049000089188A89D2073DD04B89450046AA53535E
:104910004D6983003AAA0695D550CE69C5000AAA0A
:1049200052198F6917605660B44622AE0B6A75192A
:104930004A6A2B606A608E785CAD2E54CE7862AD88
:104940002E54689E079D9E46765D5FAD2E544E7830
:1049500065AD2E54009E069DAB19049D00937D19F4
:10496000039B66465E410396029E73460495019D35
:104970009B196A41029301924A890599511889B29B
:10498000059103E00021430046AAD152401CC0B269
:104990000C28B1D36999002089788E460CE069997A
:1049A000820051184A794CAB521E1A54097954AA04
:1049B000491E1154401CC0B28645F0D8002166E063
:1049C0004CAD54AB685C5A5C90425ED0470046AD3B
:1049D000BC46EE5B5300EF5AF6196746EE530026CD
:1049E000EE523AAB87009600DD599E59AD19DD5164
:1049F000C500AC460AAB63441F685E68D3000AADCD
:104A00000693EB181D685B687F195E410AAB63442F
:104A10001F605E6022AB63441F685E68069B22AD28
:104A2000EB181D685B687F195E4122AB63441F6011
:104A30005E605CAB1D5C9E5CB54200D21E5462AEF3
:104A4000355CB35C9D4200D233545FAE355CB35CE1
:104A50009D4200D9335465AD2B5CAA5C934200D9CA
:104A60002A54481CC0B24CAA54AE0CE0155C735CCE
:104A70009D4201D1555C1554355C9D4201D1535C7A
:104A80003354401CC0B28645F0D8491CC9B28E458B
:104A900096D800252580734860802846632246AB5F
:104AA0003AAE4100595A00290BD02788B94201D9A2
:104AB000218002466788B94203D261808100715823
:104AC000A160401CC0B20C28EBD3632A5AD09000DE
:104AD0003058606062A8805CA0735CA8805C207322
:104AE00065A8805CE0735FA8805C6073009A03999E
:104AF000D317049804F0F9FC474F20377A7D04F06F
:104B0000E1FC06B22682009A0199D317029804F0BC
:104B1000ECFCBA7D04F0D6FC00B2608205992180DD
:104B200000993D4A6160002E01DA258204E0118D72
:104B30008E4201DB491E2182002801DA658204E0F1
:104B4000518D884201DB491E61820898012819D1E4
:104B50001420205E002806D0C100081A1021615ED2
:104B60004018C01020821620205E002806D0C10008
:104B7000081A1221615E4018C0106082208AA0824B
:104B8000608AE0826BB0F0BDF0B5374F00238446F9
:104B90005C1E3D787E7811E0E8188000C0194079ED
:104BA000884209D1E81844B2A000C0190623C35EA8
:104BB000934205DAC28003E05B1CDBB29E42EBD875
:104BC000002C14DAB8781E2811D28000C019C280D7
:104BD000BA7860469200D2191071B8788000C01976
:104BE00041717878401C7870B878401CB870F0BD7E
:104BF00070B530256943C46830396118048954435D
:104C0000E418CC800024E4430C8101248C818A7058
:104C10000A702BE0580E0000A40D0000481100009F
:104C200088130000A013000038140000B81300001F
:104C3000FC0200007C2900402C0500001D0500003E
:104C4000380300001E050000600300001A05000084
:104C50001405000024050000BC1600002A05000011
:104C6000B81400002F750000DC0D00000A71CB7035
:104C70004B704B710825455F5E0055436D00AD19C3
:104C800040680626405F9500FA4A4861AD18AE5F5D
:104C900005467543EE179B009A18CE6104238D617B
:104CA000D35E5843C2174A6208624C8170BD00222D
:104CB000F149012803D0887808704A7070470A705B
:104CC000FBE7F0B505460089A5B0C0B210902846B4
:104CD0002030817C00268A1CD2B20D922A680024E2
:104CE0005118C91C1D916969119129690C91E249FA
:104CF0008E70417C2091807C2190BB212868FBF73D
:104D00003FFC002081002A69401C56506A69C0B2ED
:104D100056500628F6D300203021414300220C31A2
:104D2000EB68401CC0B25A520C28F5D3002082E137
:104D300010996A6848434000101822900C99119805
:104D400011910C900020014683000C9A401CC0B2C7
:104D5000D1500628F8D30D990A9848431D99491E49
:104D600040181B9000205EE11B982E22401C1B90D7
:104D70000898AA5E4100229809180020085E824225
:104D80007EDC089B119AD3185A78002A78D1109AA1
:104D90001E2752000F928A1A1646203EF75F87425E
:104DA000EEDC0026965F8642EADC0226965F8642AB
:104DB000E6DC0A46203A1E26965F8642E0DC0222A6
:104DC0008A5E8242DCDC01269E700F9A1E275218F2
:104DD0001346203BDF5F8742D2DC089F0C9BDE55E9
:104DE0000F9BC95E8142CBDC089B0C99C9184E70A1
:104DF0000223D35E8342C3DC8E700C2C7DD2601CF8
:104E00002390C0B209903021E8684C430419002077
:104E10000B90A9690A980870E969089808701B99AD
:104E2000099808700998FFF742FF2846089B0A9ADC
:104E30000999FFF7DDFE802E01DB0B96E5E0A969FD
:104E40000B981D9B095C1291E969095C1C911299F0
:104E500010980D9A48431C99400049004018696811
:104E6000401812994A431C99591851180022825E21
:104E70000E920B9A521C12B20B920F9A831A00E0F8
:104E8000CEE01718821E801C039000939C460D985C
:104E90004B1E0292081A0D9A01978A1815931390C7
:104EA00063469B1E0493491C14921691BB1E0593E6
:104EB000411E63469B1C06931791BB1C511E401C50
:104EC000521C199000201A920793189107461F90C0
:104ED000B80013A91E9008580178002910D009982D
:104EE00081420DD01E9A684680580022825E0E983C
:104EF000824200DD0246099800E08DE0FFF744FEA3
:104F00001E98694608580021415E0E98814208DDCE
:104F10001E9813A9085801780998814201D00120F0
:104F20001F907F1C7FB2082FD2DB1F9800286CD106
:104F3000820013A989580B78002B62D16B469B58CD
:104F400000221E939A5E2E23EB5E9A4259DB0E9B43
:104F50009A4256DC099A0A70484900230A5C129961
:104F6000511849B2AA698C46915545490A5C1C9969
:104F7000511849B2EA698E4691551E996269CB5E15
:104F8000761CD118616161468A003A4900235218A3
:104F90000621515E1E9AE769D35E36B25943A36972
:104FA000CA17C9187A41E261A16171468A00314984
:104FB000002352180421515E1E9A676AD35E59433A
:104FC000236ACA17C9187A41626221626189022282
:104FD000491C6181A2566146624500DAA170002138
:104FE00061566246614500DD22700322A256714679
:104FF000724500DAE1700122A2567146724500DD69
:105000006170401C40B2082892DB0B98B04200D07F
:1050100011E72398C4B203E020980A9021980890E1
:105020000898401CC0B208902199884200D29BE6A3
:105030000A98401CC0B220990A90884200D277E6B4
:10504000104A0D49E868FFF73FFC204625B0F0BD47
:1050500030B53024D3686043C0180624045F52681A
:105060006300D55E4B00D35EAB420DDB0481C18093
:1050700030BD000044B30010DC0D000034B300105C
:105080003CB300108C0D00000824045F002C03DBEF
:105090006400125F9342EBDD0181E9E7F7B58446D6
:1050A0000C4602983025C368614630206C4341436A
:1050B000A646CA18E418506965694019506190699C
:1050C000A669D569E76986197D419661D561106A3F
:1050D000266A556A676A86197D4116625562D089CB
:1050E000E5894019D081108A258A4019108250899B
:1050F0006589401950819089A589284390810020B5
:10510000A0810220022510566557A84200DA95704A
:105110000325032055572056854200DAD07070468B
:105120005D561856854200DD585401210120515624
:105130002056814200DD507006216046615EC0B29B
:10514000029AFFF785FF0821615E002904DB6046B3
:10515000C0B2029AFFF77CFFFEBDF7B584B0049899
:10516000049DC4680020BF4A203509E081008918E9
:105170000B795B1E0B714B795B1E401C4B71C0B2EF
:1051800091788142F2D8CDE000208446087930221F
:105190005043001942894879302358430019408907
:1051A000101882B20420085603900520085601907A
:1051B000012032E0AB49830059180B793026029365
:1051C00073431B195E894B79302700937B431B196E
:1051D0005B89F3189BB2934208D21A460423CB563C
:1051E00003930523CB568446019314E0934212D1D6
:1051F000039F029B9B4EBB420DD1019F009BBB4274
:1052000009D10623CB5E61468900891906268E5F87
:10521000B34200DACB80401CC0B292498B78834203
:10522000C8D8604681008F4804260F180520BE5755
:105230003856009086426AD0049830234268302065
:105240007043011906208C46085E009940005943BE
:1052500009190623CB5E105E5B00D25E904200DD32
:105260001046814A9289142A07D20F22EA74804B91
:105270007E4A1B78D21812792A75EA7C4243287D2F
:1052800002410620385E824219DD60464269049878
:10529000808D824213DD4A69824210DD0A228A5ED5
:1052A00060460A21415E5018297C884207DA71481D
:1052B0000078002803D170480078002827D03146B4
:1052C000049A0098FFF7EAFE0598664A401EC0B2AD
:1052D00005909078800080180188B9804088F88017
:1052E0009078401E907000990020CBB20BE08100B6
:1052F00089180F79B74200D10B714F79B74200D1AD
:105300004B71401CC0B2917881420BD9EFE75549EF
:105310008878800040180288BA804088F8808878B1
:10532000401E88704F498878002800D02CE700265E
:10533000059F13E030207843001900908089C00752
:1053400008D109E03020704300198089C0070CD0D3
:10535000761C76B20C2EF5DB7F1CFFB20C2FE9D346
:1053600000200699074608604BE030207043001982
:1053700030220099FBF766F900200099761C88819D
:1053800076B2E9E7302078430619B089C00736D0F5
:10539000726900920192D317F169B06904F0A5F81F
:1053A0006A7D04F08FF800B2308502900390019A74
:1053B000716AD317306A04F098F8AA7D04F082F875
:1053C00001B271850398002801DA002005E00498F5
:1053D000029A008D824201DB401E3085002901DAED
:1053E000002004E00498408D814201DB401E70855E
:1053F000069801680098814201DA069908607F1CCE
:10540000FFB205988742BDD307B0F0BDF0B50546A1
:10541000084617490978002923D0184B4900CB18B2
:105420000421595E164B1B68994201DD002A18D0F1
:10543000002217461146302461430C46EB680C34B9
:105440001E5BF60709D08E1C9E5759568E4204D11A
:10545000022802D3401EC0B21F53521C52B20C2A63
:10546000E8DBF0BDDC0D0000BC16000060030000AE
:105470001D050000240500002A0500003803000077
:105480003805000010B50020FD4905220446D20170
:105490004300001DCC529042FAD33821F94804F061
:1054A000BBF8F848012120308174C47444758175BB
:1054B000C175F548017010BDF0B5F14CF34FCD0743
:1054C00000D0491CC9B2484300210CE04D007E5F6A
:1054D0009E4201D9002604E0665BF6B2964201D2F4
:1054E000761C6653491C8142F0D3F0BD7047FFB56E
:1054F000E749E94A08689446E64B0A46928901253D
:105500008646984206DDFF20D230824202D96046AC
:105510008577FFBDDB48002320300F46C3747B68CE
:105520007146CC180A210826795EBE5F03968E1953
:105530000196FE890096961B01D5009EB61A02962A
:10554000D64E3778D64E002F03D1D64F3F7B002F53
:1055500009D0002C04DAF1688B4201DA012100E065
:105560000021C17442E0002C04DA7746C82F01DA2A
:10557000012700E00027C7741027F75FBB420BDA52
:105580001227F75FBB4207DDB77D019E7F4376435D
:10559000B74201DD3C2927DB039E0F464F4376438C
:1055A000B74206DAC04E0027F75FB94201DD3C2959
:1055B0001ADBBE4E3678002E02D0322914DB0BE007
:1055C000BB490978002911D1029914290EDA0099F2
:1055D00005290BD9052A09D9C721C9438B4205DA08
:1055E0007D21C9008C4201DAC57405E0C17C002927
:1055F00002D1017D002910D000218175427D002A51
:1056000007D0C27C002A06D06246957741750175A5
:10561000FFBD4575FFBD4175FFBD00214175857515
:10562000FFBDF0B587B01F21019111210291002625
:105630000421415E03910221415E162005909D48A0
:10564000B4463346B6463546344604913246009059
:1056500005985043410000980818002106901AE070
:1056600006984F00C05FA84201DD054602E0A04257
:1056700000DA0446039FB84203DB36185B1C9BB27A
:1056800007E0049FB84204DC84447046401C80B2AA
:105690008646491CC9B202988142E1D3521C019846
:1056A000D2B28242D4D37A486146458104810660F1
:1056B000416083817146C18107B0F0BDFEB51F20F6
:1056C0008646162000907B4800240422015F825EFB
:1056D000082589180622825E455F0A275219891813
:1056E0000C22825E11238E180221415E0191C75F58
:1056F0000022CD19704984460295AE4208DA019D18
:105700000A2D05DD0A2F03DD029C8C80012400E0B8
:105710008A8014251826455F865F1C27AD191A2636
:10572000865FC75FF619AD192026865FAF1916266A
:10573000865F1E250196455F76190296B74207DA05
:10574000019E0A2E04DD0A2D02DD029CCC8002E0BF
:10575000CA80002C06D000246500641CE4B24253C9
:105760009C42F9D37046009D401E68434500604648
:10577000281800240426055F865F0A27AD1906262F
:10578000865FC75FF619AF190225455F0826865F59
:10579000AC46AD19AF4207DA67460A2F04DD0A2E80
:1057A00002DD0D81012400E00A810A250E26455FF5
:1057B000865F1227AD191026865FC75FF619AD19EF
:1057C0001626865FAF1914260C25865F455FB44602
:1057D000AE19B74207DA0A2D05DD65460A2D02DD4E
:1057E0004E81012400E04A8116251A26455F865F16
:1057F0002027AD191C26865FC75FF619AF191E2634
:105800001825865F455FB446AE19B74206DA0A2D01
:1058100004DD65460A2D01DD8E8102E08A81002CBF
:1058200007D0002103E04C00491C0253C9B2994241
:10583000F9D3FEBD00B52148FFF740FF1F48FFF731
:10584000F0FE1F481F4900780978084301D1FFF78F
:105850004EFE00BD0FB4F0B585B01B481A9A0190FA
:105860001A4802901C9B0648039019480178124878
:105870004030807801292DD0002A72D134E0000018
:10588000202500408416000054050000C42000407C
:10589000BC160000A0860100B41B00001D0500001E
:1058A0008C0300007C030000380300002405000086
:1058B0003C050000D8290040CC160000F002000092
:1058C0002A0500002B050000681C00400C18004051
:1058D00028050000284A0A21515E284A284D1278DE
:1058E0005200AA5E91423CDC00283AD1254884420D
:1058F00002DA012010A98877D80701D0581C00E0EF
:105900001846C0B20090D80701D0581C00E01846D5
:10591000C0B28646002221E0009801995043400021
:1059200044180399451870465043410002980818DE
:10593000844600210EE0144F48002E5A3F7ABE42A2
:1059400006D36646275A365ABF1B275200262E52C8
:10595000491C89B29942EED3521C92B21B988242E2
:10596000DAD338220BA90A98FAF76CFE05B0F0BC1E
:1059700008BC04B018470000BC1600001D0500005C
:105980003803000018FCFFFFF002000070471723E7
:10599000F848594201704911417015218170C9437D
:1059A000C17016220271491C417101218171C371BC
:1059B000704710B50446F149EF48086000200871AF
:1059C000421E4A71C860012208610A7205228A716A
:1059D000C8718876EA4A21881180EA4A0146242360
:1059E0004B43491CD0520C29F9DBFFF7D0FFE648A6
:1059F000046010BDF1B584B0002003900620029031
:105A0000DE480427C7570C2F78DADE4E0024242006
:105A10006043305A002803D0641C64B20C2CF6DBBF
:105A2000049830214843D94945180621695ED84871
:105A3000009101780191009803F0FAFD019A40B2BB
:105A400000994243891AD34A49B212785300CE4A88
:105A500012689A1800280BDDCF4B1B785B1F984209
:105A600006DA002904DD029B0198C01A884201DC95
:105A7000002F09D00421515E6869884225D3BF49AF
:105A80000A69002A03D005E00C21515EF4E7C34AFD
:105A900012680A6105228A56002A0ADA24234C7108
:105AA000BF4A6343F252CA79002A06D10122CA7161
:105AB00003E0022224236343F252FF2391339842EE
:105AC00006D38A7E521C8A7602E00399002915D0FB
:105AD00024214C43A119049A4A7701224A610022E9
:105AE0000A814A818A81CA810A824A822A8D4A8031
:105AF0006A8D8A80C880A1487F1C077105B0F0BDFF
:105B0000F0B524219F4C484301194A693023521CA7
:105B10004A610022D2434A77225A984D9A43012380
:105B2000DB021A438223164622521E402B795B1E4B
:105B30005BB2002E03D0002121522B71F0BD8126D3
:105B4000B6001746374220D00A7F924F521CD2B27D
:105B50000A778D493F780968C919097E8A42EDDBC9
:105B6000215AB14321524A0609D5002121522B71F5
:105B70001A2028560028E1DD401EA876F0BD082234
:105B8000114321520220E871F0BDD307FCD0042359
:105B90001A43225201200877F0BDF0B524210446B3
:105BA000784A4C43115B83231B018BB09943734F9D
:105BB00011533B798E075B1E5BB205931A23FB568C
:105BC00007935B1E5BB206931346E518002E32DA8C
:105BD0001D216956302359436C4BC9181823496954
:105BE000FB5E994220DB6B6939465B1C6B610525C6
:105BF0007D57C979002D0FDBB879834219D3105B2B
:105C000002239843212318431053664A64201070DE
:105C100000290ED1012082E0135B0225AB43604DC9
:105C20002B4313537871F3E7002010536DE006986F
:105C3000B8760BB0F0BD58484A070078401F029074
:105C4000534800780190801F0890524800780490D3
:105C500043004D48006803901E18002A61DA686905
:105C60001D21401C68610990695630204143474816
:105C7000081806210A90415E00910199009803F0EE
:105C8000D7FC019A40B200994243891A49B20028D0
:105C900007DD029A904204DA002902DD089A8A425E
:105CA00009DC072801DB012902DA0C20305E08E05C
:105CB0000C20305E0DE0072801DB012907DA0820FF
:105CC000305E0A21C00003F0B3FC00B201E00820FE
:105CD000305E0A9A2B495269824204DB0A5B042037
